:020000040800F2
:1000000000C0002049550008493500084B3500085C
:100010004D3500084F35000851350008000000003C
:100020000000000000000000000000005335000840
:100030005535000800000000573500085935000804
:1000400091550008915500089155000891550008F8
:1000500091550008915500089155000891550008E8
:100060009155000891550008915500085D3500082C
:10007000915500089155000869350008753500084C
:1000800091550008915500089155000891350008D8
:100090008D350008813500089155000891550008FC
:1000A0009155000891550008915500089155000898
:1000B00091550008953500089155000891550008A4
:1000C0009155000891550008915500089155000878
:1000D0009155000891550008915500089155000868
:1000E0009155000891550008915500089155000858
:1000F0009155000891550008915500089155000848
:100100009155000891550008915500089155000837
:100110009155000891550008A13500089155000837
:100120009155000891550008915500089155000817
:1001300000000000000000000000000000000000BF
:1001400000000000000000000000000000000000AF
:10015000000000000000000000000000000000009F
:10016000000000000000000000000000000000008F
:10017000000000000000000000000000000000007F
:10018000000000000000000000000000000000006F
:10019000000000000000000000000000000000005F
:1001A000000000000000000000000000000000004F
:1001B000000000000000000000000000000000003F
:1001C000000000000000000000000000000000002F
:1001D000000000000000000000000000000000001F
:0401E0005FF8E0F1F3
:1001E80010B5054C237833B9044B13B10448AFF369
:1001F80000800123237010BD78000020000000005B
:10020800C46A000808B5034B1BB103490348AFF3A0
:10021800008008BD000000007C000020C46A0008BF
:1002280010F8012B11F8013B012A28BF9A42F7D098
:10023800D01A704781F0004102E000BF83F000430C
:1002480030B54FEA41044FEA430594EA050F08BF69
:1002580090EA020F1FBF54EA000C55EA020C7FEA2D
:10026800645C7FEA655C00F0E2804FEA5454D4EBAA
:100278005555B8BF6D420CDD2C4480EA020281EA74
:10028800030382EA000083EA010180EA020281EAAC
:100298000303362D88BF30BD11F0004F4FEA0131FE
:1002A8004FF4801C4CEA113102D0404261EB41010D
:1002B80013F0004F4FEA03334CEA133302D0524293
:1002C80063EB430394EA050F00F0A780A4F101044F
:1002D800D5F1200E0DDB02FA0EFC22FA05F2801889
:1002E80041F1000103FA0EF2801843FA05F359416F
:1002F8000EE0A5F120050EF1200E012A03FA0EFCEE
:1003080028BF4CF0020C43FA05F3C01851EBE37117
:1003180001F0004507D54FF0000EDCF1000C7EEB34
:1003280000006EEB0101B1F5801F1BD3B1F5001F72
:100338000CD349085FEA30004FEA3C0C04F1010491
:100348004FEA445212F5800F80F09A80BCF1004FBA
:1003580008BF5FEA500C50F1000041EB045141EA3C
:10036800050130BD5FEA4C0C404141EB010111F43D
:10037800801FA4F10104E9D191F0000F04BF0146E8
:100388000020B1FA81F308BF2033A3F10B03B3F1C6
:1003980020020CDA0C3208DD02F1140CC2F10C0256
:1003A80001FA0CF021FA02F10CE002F11402D8BFB4
:1003B800C2F1200C01FA02F120FA0CFCDCBF41EA80
:1003C8000C019040E41AA2BF01EB0451294330BD4F
:1003D8006FEA04041F3C1CDA0C340EDC04F114042C
:1003E800C4F1200220FA04F001FA02F340EA030003
:1003F80021FA04F345EA030130BDC4F10C04C4F149
:10040800200220FA02F001FA04F340EA0300294628
:1004180030BD21FA04F0294630BD94F0000F83F472
:10042800801306BF81F480110134013D4EE77FEA55
:10043800645C18BF7FEA655C29D094EA050F08BFA1
:1004480090EA020F05D054EA000C04BF1946104682
:1004580030BD91EA030F1EBF0021002030BD5FEAC6
:10046800545C05D14000494128BF41F0004130BDEE
:1004780014F580043CBF01F5801130BD01F0004542
:1004880045F0FE4141F470014FF0000030BD7FEAB5
:10049800645C1ABF194610467FEA655C1CBF0B46B0
:1004A800024650EA013406BF52EA033591EA030FC7
:1004B80041F4002130BD00BF90F0000F04BF0021BF
:1004C800704730B54FF4806404F132044FF00005F2
:1004D8004FF0000150E700BF90F0000F04BF00216B
:1004E800704730B54FF4806404F1320410F00045D1
:1004F80048BF40424FF000013EE700BF42004FEACC
:10050800E2014FEA31014FEA02701FBF12F07F4348
:1005180093F07F4F81F06051704792F0000F14BF45
:1005280093F07F4F704730B54FF4607401F0004589
:1005380021F0004120E700BF50EA010208BF7047E0
:1005480030B54FF000050AE050EA010208BF7047D5
:1005580030B511F0004502D5404261EB41014FF43E
:10056800806404F132045FEA915C3FF4DCAE4FF042
:1005780003025FEADC0C18BF03325FEADC0C18BF29
:10058800033202EBDC02C2F1200300FA03FC20FA7A
:1005980002F001FA03FE40EA0E0021FA02F11444C7
:1005A800C1E600BF70B54FF0FF0C4CF4E06C1CEADC
:1005B80011541DBF1CEA135594EA0C0F95EA0C0F51
:1005C80000F0DEF82C4481EA030621EA4C5123EAC4
:1005D8004C5350EA013518BF52EA033541F48011F3
:1005E80043F4801338D0A0FB02CE4FF00005E1FBA6
:1005F80002E506F00042E0FB03E54FF00006E1FBF0
:1006080003569CF0000F18BF4EF0010EA4F1FF0432
:10061800B6F5007F64F5407404D25FEA4E0E6D4172
:1006280046EB060642EAC62141EA55514FEAC52083
:1006380040EA5E504FEACE2EB4F1FD0C88BFBCF5FF
:10064800E06F1ED8BEF1004F08BF5FEA500E50F1B0
:10065800000041EB045170BD06F0004646EA010176
:1006680040EA020081EA0301B4EB5C04C2BFD4EBA8
:100678000C0541EA045170BD41F480114FF0000EA1
:10068800013C00F3AB8014F1360FDEBF002001F00F
:10069800004170BDC4F10004203C35DA0C341BDC89
:1006A80004F11404C4F1200500FA05F320FA04F05B
:1006B80001FA05F240EA020001F0004221F000418F
:1006C80010EBD37021FA04F642EB06015EEA430E02
:1006D80008BF20EAD37070BDC4F10C04C4F1200532
:1006E80000FA04F320FA05F001FA04F240EA0200E5
:1006F80001F0004110EBD37041F100015EEA430EB6
:1007080008BF20EAD37070BDC4F1200500FA05F2D5
:100718004EEA020E20FA04F301FA05F243EA020354
:1007280021FA04F001F0004121FA04F220EA020063
:1007380000EBD3705EEA430E08BF20EAD37070BDA9
:1007480094F0000F0FD101F00046400041EB010189
:1007580011F4801F08BF013CF7D041EA060195F06B
:10076800000F18BF704703F00046520043EB030325
:1007780013F4801F08BF013DF7D043EA0603704712
:1007880094EA0C0F0CEA135518BF95EA0C0F0CD01D
:1007980050EA410618BF52EA4306D1D181EA030163
:1007A80001F000414FF0000070BD50EA410606BF5D
:1007B8001046194652EA430619D094EA0C0F02D1A2
:1007C80050EA013613D195EA0C0F05D152EA0336E7
:1007D8001CBF104619460AD181EA030101F0004105
:1007E80041F0FE4141F470014FF0000070BD41F04E
:1007F800FE4141F4780170BD70B54FF0FF0C4CF428
:10080800E06C1CEA11541DBF1CEA135594EA0C0F46
:1008180095EA0C0F00F0A7F8A4EB050481EA030E93
:1008280052EA03354FEA013100F088804FEA03337A
:100838004FF0805545EA131343EA12634FEA022248
:1008480045EA111545EA10654FEA00260EF0004109
:100858009D4208BF964244F1FD0404F5407402D25B
:100868005B084FEA3202B61A65EB03055B084FEAEC
:1008780032024FF480104FF4002CB6EB020E75EBE9
:10088800030E22BFB61A754640EA0C005B084FEA11
:100898003202B6EB020E75EB030E22BFB61A75468E
:1008A80040EA5C005B084FEA3202B6EB020E75EBD9
:1008B800030E22BFB61A754640EA9C005B084FEA51
:1008C8003202B6EB020E75EB030E22BFB61A75465E
:1008D80040EADC0055EA060E18D04FEA051545EA4D
:1008E80016754FEA06164FEAC30343EA52734FEAF6
:1008F800C2025FEA1C1CC0D111F4801F0BD141EA6F
:1009080000014FF000004FF0004CB6E711F4801FD3
:1009180004BF01430020B4F1FD0C88BFBCF5E06FB3
:100928003FF6AFAEB5EB030C04BFB6EB020C5FEAC3
:10093800500C50F1000041EB045170BD0EF0004E18
:100948004EEA113114EB5C04C2BFD4EB0C0541EA4A
:10095800045170BD41F480114FF0000E013C90E647
:1009680045EA060E8DE60CEA135594EA0C0F08BF0B
:1009780095EA0C0F3FF43BAF94EA0C0F0AD150EA0A
:1009880001347FF434AF95EA0C0F7FF425AF10469D
:1009980019462CE795EA0C0F06D152EA03353FF4C5
:1009A800FDAE1046194622E750EA410618BF52EA42
:1009B80043067FF4C5AE50EA41047FF40DAF52EA16
:1009C80043057FF4EBAE12E74FF0FF3C06E000BFB3
:1009D8004FF0010C02E000BF4FF0010C4DF804CDC0
:1009E8004FEA410C7FEA6C5C4FEA430C18BF7FEA80
:1009F8006C5C1BD001B050EA410C0CBF52EA430CAE
:100A080091EA030F02BF90EA020F0020704710F12D
:100A1800000F91EA030F58BF994208BF90422CBFBC
:100A2800D8176FEAE37040F0010070474FEA410CB5
:100A38007FEA6C5C02D150EA013C07D14FEA430CD3
:100A48007FEA6C5CD6D152EA033CD3D05DF8040B44
:100A5800704700BF8446104662468C461946634676
:100A680000E000BF01B5FFF7B7FF002848BF10F14D
:100A7800000F01BD4DF808EDFFF7F4FF0CBF012092
:100A880000205DF808FB00BF4DF808EDFFF7EAFF0E
:100A980034BF012000205DF808FB00BF4DF808EDC9
:100AA800FFF7E0FF94BF012000205DF808FB00BFBE
:100AB8004DF808EDFFF7CEFF94BF012000205DF848
:100AC80008FB00BF4DF808EDFFF7C4FF34BF012055
:100AD80000205DF808FB00BF4FEA410C7FEA6C5C20
:100AE80002D150EA013C0AD14FEA430C7FEA6C5C20
:100AF80002D152EA033C02D14FF0000070474FF098
:100B0800010070474A0011D212F5001211D20DD51A
:100B18006FF47873B3EB62520ED44FEAC12343F0FB
:100B2800004343EA505323FA02F070474FF00000A5
:100B3800704750EA013002D14FF0FF3070474FF054
:100B48000000704780F0004002E000BF81F00041E3
:100B580042001FBF5FEA410392EA030F7FEA226C5B
:100B68007FEA236C6AD04FEA1262D2EB1363C1BFEB
:100B7800D218414048404140B8BF5B42192B88BF5A
:100B8800704710F0004F40F4000020F07F4018BF7D
:100B9800404211F0004F41F4000121F07F4118BF9D
:100BA800494292EA030F3FD0A2F1010241FA03FC45
:100BB80010EB0C00C3F1200301FA03F100F000432D
:100BC80002D5494260EB4000B0F5000F13D3B0F1F5
:100BD800807F06D340084FEA310102F10102FE2A64
:100BE80051D2B1F1004F40EBC25008BF20F00100D4
:100BF80040EA03007047490040EB000010F4000F82
:100C0800A2F10102EDD1B0FA80FCACF1080CB2EB14
:100C18000C0200FA0CF0AABF00EBC2505242184373
:100C2800BCBFD0401843704792F0000F81F4000118
:100C380006BF80F400000132013BB5E74FEA4103EB
:100C48007FEA226C18BF7FEA236C21D092EA030F57
:100C580004D092F0000F08BF0846704790EA010FD1
:100C68001CBF0020704712F07F4F04D1400028BFFE
:100C780040F00040704712F100723CBF00F50000E0
:100C8800704700F0004343F0FE4040F40000704716
:100C98007FEA226216BF08467FEA236301464202C2
:100CA80006BF5FEA412390EA010F40F480007047D5
:100CB8004FF0000304E000BF10F0004348BF40427B
:100CC8005FEA000C08BF704743F0964301464FF0B7
:100CD80000001CE050EA010208BF70474FF0000313
:100CE8000AE000BF50EA010208BF704711F0004354
:100CF80002D5404261EB41015FEA010C02BF844624
:100D08000146002043F0B64308BFA3F18053A3F582
:100D18000003BCFA8CF2083AA3EBC25310DB01FAC9
:100D280002FC634400FA02FCC2F12002BCF1004F4D
:100D380020FA02F243EB020008BF20F001007047DE
:100D480002F1200201FA02FCC2F1200250EA4C0032
:100D580021FA02F243EB020008BF20EADC70704778
:100D68004FF0FF0C1CEAD0521EBF1CEAD15392EA86
:100D78000C0F93EA0C0F6FD01A4480EA010C400262
:100D880018BF5FEA41211ED04FF0006343EA5010BC
:100D980043EA5111A0FB01310CF00040B1F5000FFE
:100DA8003EBF490041EAD3715B0040EA010062F1AD
:100DB8007F02FD2A1DD8B3F1004F40EBC25008BF97
:100DC80020F00100704790F0000F0CF0004C08BFB5
:100DD80049024CEA502040EA51207F3AC2BFD2F182
:100DE800FF0340EAC250704740F400004FF0000390
:100DF800013A5DDC12F1190FDCBF00F000407047CA
:100E0800C2F10002410021FA02F1C2F1200200FA07
:100E180002FC5FEA310040F1000053EA4C0308BFCE
:100E280020EADC70704792F0000F00F0004C02BF1F
:100E3800400010F4000F013AF9D040EA0C0093F09A
:100E4800000F01F0004C02BF490011F4000F013BF4
:100E5800F9D041EA0C018FE70CEAD15392EA0C0F62
:100E680018BF93EA0C0F0AD030F0004C18BF31F0CD
:100E7800004CD8D180EA010000F00040704790F0A3
:100E8800000F17BF90F0004F084691F0000F91F047
:100E9800004F14D092EA0C0F01D142020FD193EA0D
:100EA8000C0F03D14B0218BF084608D180EA010095
:100EB80000F0004040F0FE4040F40000704740F071
:100EC800FE4040F4400070474FF0FF0C1CEAD0523F
:100ED8001EBF1CEAD15392EA0C0F93EA0C0F69D09B
:100EE800A2EB030280EA010C49024FEA402037D006
:100EF8004FF0805343EA111143EA10130CF00040FD
:100F08008B4238BF5B0042F17D024FF4000C8B42EC
:100F180024BF5B1A40EA0C00B3EB510F24BFA3EBCC
:100F2800510340EA5C00B3EB910F24BFA3EB91039C
:100F380040EA9C00B3EBD10F24BFA3EBD10340EAF6
:100F4800DC001B0118BF5FEA1C1CE0D1FD2A3FF63C
:100F580050AF8B4240EBC25008BF20F001007047F1
:100F68000CF0004C4CEA50207F32C2BFD2F1FF0394
:100F780040EAC250704740F400004FF00003013AC5
:100F880037E792F0000F00F0004C02BF400010F469
:100F9800000F013AF9D040EA0C0093F0000F01F07D
:100FA800004C02BF490011F4000F013BF9D041EA9F
:100FB8000C0195E70CEAD15392EA0C0F08D14202D2
:100FC8007FF47DAF93EA0C0F7FF470AF084676E7A5
:100FD80093EA0C0F04D14B023FF44CAF08466EE77E
:100FE80030F0004C18BF31F0004CCAD130F000424C
:100FF8007FF45CAF31F000437FF43CAF5FE700BFA4
:101008004FF0FF3C06E000BF4FF0010C02E000BFCC
:101018004FF0010C4DF804CD4FEA40024FEA41036E
:101028007FEA226C18BF7FEA236C11D001B052EA24
:10103800530C18BF90EA010F58BFB2EB030088BFEA
:10104800C81738BF6FEAE17018BF40F00100704759
:101058007FEA226C02D15FEA402C05D17FEA236C3B
:10106800E4D15FEA412CE1D05DF8040B704700BF82
:10107800844608466146FFE70FB5FFF7C9FF002819
:1010880048BF10F1000F0FBD4DF808EDFFF7F4FF52
:101098000CBF012000205DF808FB00BF4DF808EDEB
:1010A800FFF7EAFF34BF012000205DF808FB00BF0E
:1010B8004DF808EDFFF7E0FF94BF012000205DF830
:1010C80008FB00BF4DF808EDFFF7D2FF94BF0120E1
:1010D80000205DF808FB00BF4DF808EDFFF7C8FFDA
:1010E80034BF012000205DF808FB00BF42000ED28B
:1010F800B2F1FE4F0BD34FF09E03B3EB126209D44B
:101108004FEA002343F0004323FA02F070474FF000
:101118000000704712F1610F01D1420202D14FF075
:10112800FF3070474FF00000704700BF03685A0057
:101138004CBF43F0004323F000431844704700BFFE
:1011480061B32DE9F84F01F1FF3A90460646D146C2
:10115800002707EB090404EBD4746410E500711947
:101168000846FFF7E3FFA245834605F1080030442F
:1011780009D0FFF7DBFFC34500F1FF3005D8404534
:1011880009D2671CE5E7C34505D9A74202D004F197
:10119800FF39DEE700210846BDE8F88F08467047AA
:1011A800012807D0022807D0044B00280CBF184696
:1011B800002070470248704702487047B918000875
:1011C800BD180008C118000830B5254B83B0044687
:1011D8008D1E73B301A92846AFF3008018B3019997
:1011E8002A46FFF7ADFF0146E8B1FFF79FFF4B68BE
:1011F800A064012B11D0002B22DB081DFFF796FFFE
:101208000023E06423650368002B1EDBFFF78EFFD5
:1012180000232061184603B030BD0523002218467C
:10122800226103B030BD092300221846226103B0B1
:1012380030BD0C4B0C491846C91AC9100191CFE7AB
:101248000123081DE0642365DDE7C3F30360FFF7AE
:10125800A7FF0028206114BF00230923DAE700BF95
:1012680000000000E46D0008A46F0008036810B5D2
:10127800DA07044606D49B0700F1480009D500F0B8
:1012880057FC2368590709D51A070ED5DB0613D56D
:1012980010BD00F045FC23685907F5D404F1D000CF
:1012A80000F04EFC23681A07F0D404F5A87000F08B
:1012B8004FFC2368DB06EBD404F5E870BDE810406A
:1012C80000F08ABC036803B103441846704700BFA6
:1012D80009207047704700BF70B504460D4608E006
:1012E8002A6C2369626121462A460120984708280A
:1012F80008D1296C2046FFF767FF06460028EFD083
:1013080005F086FB0728FBD13046296CFFF7E2FF82
:10131800281D00F0F9FB00BF2DE9F047054600271E
:10132800ADF5727D03AC0E1D92460FCE0FC40FCEE5
:101338000FC40FCE0FC496E80F00D5F80C80D5F86F
:10134800189084E80F0002AC2846216C2760FFF74C
:101358003BFFBAF1000F074614BF0A2609267FB1E2
:10136800A36B46F010018DE810022A466364012041
:101378002B46C04778BB38460DF5727DBDE8F0872F
:10138800236C4FF4F0726B6121467AA805F047FB95
:101398002B697AAA294630469847889B82468DE869
:1013A8001002314663642A462B460120C04790B993
:1013B8004FF4F0727AA9204605F031FBBAF1080F14
:1013C80006D1216C2846FFF7FFFE09260746C6E727
:1013D800BAF1070F05D0092738460DF5727DBDE82B
:1013E800F0873846216CFFF775FF03A800F08CFBE7
:1013F800406C7047F0B54FF0FF3ECB6BF9B00B6413
:101408000E1D01AD0F4604460FCE0FC50FCE0FC5FA
:101418000FCE0FC596E80F0085E80F00CDF800E065
:1014280006E023696A46214698470828054608D1F8
:1014380010992046FFF7C8FE0028F2D0092079B09D
:10144800F0BD6846FFF712FF062DF7D13946204652
:10145800FFF742FF30B4DD6BC160826119461D643D
:10146800002230BC58E700BF70B54369C6680B64FA
:1014780026B10122FFF750FF05F0CAFA03690A46B0
:1014880004460D46014602209847072807D0082839
:1014980003D129462046FFF71FFF05F0B9FA304669
:1014A800296CFFF717FF281D00F02EFBC2682AB130
:1014B80010B4CC6B00220C6410BC2DE79AE700BF77
:1014C800704700BF836813B1014601201847704771
:1014D80000B5042907D8DFE801F003090609090067
:1014E8000BB90F2A05D902205DF804FB01205DF82D
:1014F80004FB00EB820252681846019B1A605DF8F3
:1015080004FB00BF002310B584B003AC0A46009466
:101518001946FFF7DDFF039804B010BD00B5042994
:1015280007D8DFE801F00309060909000BB90F2AFB
:1015380005D902205DF804FB01205DF804FB019940
:1015480000EB82020968184651605DF804FB00BF91
:10155800002310B584B004AC44F8042D00940A4666
:101568001946FFF7DBFF04B010BD00BFF0B54FF020
:10157800FF3ED36BADF50F7D1364151D17AC074601
:101588000E460FCD0FC40FCD0FC40FCD0FC495E875
:101598000F0084E80F00CDF858E012E00C2116A8DF
:1015A8006A46FFF7D5FF314616A8B84778B9049BB5
:1015B80016AA6946082098470528044608D009282D
:1015C80005D026996846FFF7FFFD0028E6D00924D4
:1015D80016A8FFF74BFE20460DF50F7DF0BD00BFA6
:1015E8002DE9F04FCC6C914622688BB004340D463F
:1015F8000792089400F0030B1E46002B60D10323CA
:10160800120207928DF825608DF824302B6DBBF1FE
:10161800020F08BFAC6B13F0010340D1019300F037
:1016280008030393D4F80080B8F1000F39D0022ED4
:1016380043D0B4F8008067880434AB6C27F0010A03
:101648000F2148469A44FFF75DFF824533D828F0BA
:1016580001039A4450452CBF002001207F0007F069
:10166800020708F0010847EA0807012F3ED035D3E2
:10167800022F1CD1236823F000420292BBF1000F15
:1016880076D128B1039900297ED0002A00F0A680DF
:10169800002B77DB029B013304EB8304C2E70023B2
:1016A8000193022E3EDDFFF713FE002840D00920EB
:1016B8000BB0BDE8F08F0020D0E767680834BCE7BE
:1016C800022BA3DC0221130C8DF825301204DBB2A7
:1016D80004EB830407928DF8241097E7BBF1000F01
:1016E80002D0002840F0BD8004349BE7BBF1000F16
:1016F80025D1A8B194E80C00991C4FEAD272D6D033
:1017080005F158010133069100F0A380201DFFF771
:10171800D9FD06AB01462846AFF30080002877D1F3
:1017280008347FE707A9484600F0F0FA0028BED140
:10173800019B002B5CD108200BB0BDE8F08F0D2178
:1017480048462F6AFFF7DEFE8742E9D1AB6A9C4222
:10175800E6D12046FFF7EAFC0F2102464846FFF78C
:10176800F7FE48462A460021FFF7F2FE07209FE7CA
:101778000D2148462F6AFFF7C5FE874258D02368D7
:10178800002B87DA043485E7029B3BB305F1580345
:10179800271DCDF810B0DDF80C80A346DDF808A0B1
:1017A8001C46059602E0B245B04616D03846069467
:1017B800FFF788FD06AB014600222846AFF30080FC
:1017C80008F1010604370028EDD0029B5C4643452A
:1017D800DDF810B0059ED2D100E05C4648460D21E8
:1017E800FFF790FE069B2862AC626B6206205FE7FB
:1017F8000F214846FFF786FE0E2102464846FFF7AE
:10180800A7FE4846294A0F21FFF7A2FE07204FE707
:1018180007460D214846FFF775FE022F28621DD1A5
:101828002B46069A43F82C2F6B62AC6206203FE7E2
:10183800AB6A9C42A3D1042200270299A318A9628B
:10184800EF622A636B632368BB421DDB01230193AC
:1018580020E748460D21FFF755FE2862069B6B627C
:10186800E3E72046FFF762FC04340646AC632846EB
:10187800AFF3008000283FF41AAF484632460F21E4
:10188800FFF766FE072013E70846013004EB8000E7
:10189800FFF74CFC0F2102464846FFF759FE484621
:1018A8002A463946FFF754FE072001E700000000EA
:1018B800002395E6012393E6022391E6F0B504465A
:1018C800C5B004290DD8DFE801F055030C310F002D
:1018D800012B4FEA124695B264D17219102A40F2D0
:1018E8009D80022045B0F0BD002BFAD1102AF8D80F
:1018F8002368D80600F1C88022AE3046019201253F
:1019080000F074F90023A06B019A05FA03F1114263
:1019180003D00168043046F823100133042BF4D1B6
:10192800A063304600F058F90020DBE7032BD8D13C
:10193800150C97B2EB19102BD3D823681E0700F1AA
:10194800B78022AE304600F025F9ED00A06B5FB1FC
:10195800043D0346711900EBC70053F8042B83427A
:1019680041F8042FF9D11846A063304600F0F0F88A
:101978000020B7E7002BB4D10127A56B96B2201D34
:1019880007FA03F1314203F1010302D02968043553
:101998000160102B00F10400F2D112F400503BD189
:1019A800A5639FE7052B9CD17719202F99D80F2E77
:1019B80066D92F46002D3AD12A460027002AA06B67
:1019C80072DD00EBC202014644A800EBC6008C3869
:1019D80051F8045B914240F8045FF9D1084697B189
:1019E800102E324638BF102244A901EBC202A2F5DC
:1019F800C4727900043A00EB810150F8045B884214
:101A080042F8045FF9D1012B48D00F2EA16333D9D6
:101A180017B102A800F094F8002063E70F2E3FF6F4
:101A280060AF00272268D10717D4002F60D0226842
:101A3800510745D4012B4DD00F2E06D822A801936B
:101A480000F07AF8019B002FB6D002A8019300F0AD
:101A58007BF8019BC6F11002B0E722F00101052BCB
:101A68002160019320463BD022F0030240F8482B26
:101A780000F05AF8019BD8E722A800F059F8C7E708
:101A8800102FCED9103FCDE723F01003236004F5C3
:101A9800E870019200F0AAF8019A2DE70431A163D9
:101AA80022A800F03DF8B7E7002F99D10146AAE730
:101AB80023F00803236004F5A87000F06BF840E7F2
:101AC800204622F0040240F8D02B019300F03CF8A5
:101AD800019BAFE722A8019300F026F8019BB9E724
:101AE80041F0020140F8481B00F026F8019B9CE7F2
:101AF800012B03D00F2E3FF65FAF9FE722A801937B
:101B080000F012F8019B57E700F1340191E8380022
:101B18009C46A6464CF8045D90E8FF0FE54600BDDC
:101B280090EC210B704700BF80EC210B704700BF81
:101B380090EC200B704700BF80EC200B704700BF73
:101B4800D0EC200B704700BFC0EC200B704700BFE3
:101B5800F0EC0201F0EC0211F0EC0221F0EC0231A1
:101B6800F0EC0241F0EC0251F0EC0261F0EC027191
:101B7800F0EC0281F0EC0291F0EC02A1F0EC02B181
:101B8800F0EC02C1F0EC02D1F0EC02E1F0EC02F171
:101B9800704700BFE0EC0201E0EC0211E0EC02212A
:101BA800E0EC0231E0EC0241E0EC0251E0EC0261D1
:101BB800E0EC0271E0EC0281E0EC0291E0EC02A1C1
:101BC800E0EC02B1E0EC02C1E0EC02D1E0EC02E1B1
:101BD800E0EC02F1704700BFB0FC0181B0FC01915C
:101BE800B0FC01A1B0FC01B1704700BFA0FC0181AD
:101BF800A0FC0191A0FC01A1A0FC01B1704700BFAD
:101C0800EC4600B52DE900502DE9FF1F4FF0000309
:101C18002DE90C0001A9FFF7EDFBDDF840E012B05B
:101C2800704700BFEC4600B52DE900502DE9FF1FB5
:101C38004FF000032DE90C0001A9FFF715FCDDF8B2
:101C480040E012B0704700BFEC4600B52DE90050E7
:101C58002DE9FF1F4FF000032DE90C0001A9FFF744
:101C680025FCDDF840E012B0704700BFEC4600B537
:101C78002DE900502DE9FF1F4FF000032DE90C005E
:101C880001ABFFF7E7FBDDF840E012B0704700BF9B
:101C9800EC4600B52DE900502DE9FF1F4FF0000379
:101CA8002DE90C0001AAFFF761FCDDF840E012B055
:101CB800704700BF027A1AB9437A43B9B020704717
:101CC8000368013A02721A020260180E7047032173
:101CD8004268013B10B443721368141D01721A0262
:101CE8004460026010BC180E704700BF002300B5A6
:101CF80085B003AA009219460C22FFF7E9FB039866
:101D080005B05DF804FB00BFF0E700BF2DE9F04324
:101D180006460F464FF0000885B03846FFF7CAFF61
:101D2800B028044623D0050627D400230DF10C095A
:101D3800194685000D22CDF800903046FFF7C8FB04
:101D4800EDB2039B600605F104054CBF5D1BED1861
:101D580000230D221946CDF8009030460395FFF771
:101D6800DDFB3846FFF7A6FFB0280446DBD1B8F103
:101D7800000F00F0948000201CE000F0F003802B9E
:101D88005CD0902B19D0A02B2CD0B02B3ED0C02BE0
:101D98006BD000F0F803D02B0BD100F00702013212
:101DA80042F40022052301213046FFF787FD002871
:101DB800B3D0092005B0BDE8F08300F00D030D2B6A
:101DC800F7D0002303AD00F00F0219460095304606
:101DD800FFF77EFB0023009519460D223046FFF7DA
:101DE8009DFB9AE7C3434FF47F6203F007031A4150
:101DF8000023010702F47F6248BF42F4804219467B
:101E08003046FFF75BFD0028D3D186E7B12857D0CD
:101E1800B22868D0B32800F0958000F0FC03B42BFA
:101E2800C7D0012300F007021A4442F400221946E1
:101E38003046FFF743FD0028BBD16EE73846FFF771
:101E480039FF24020443B4F5004FB2D00023240123
:101E5800A2B219463046FFF731FD0028A9D114F483
:101E6800004F18BF4FF0010857E7C6287DD0C72894
:101E780000F0868000F0F803C02B00F09480C8289A
:101E880000F09F80C92894D13846FFF713FF02035A
:101E980000F00F0002F470220130024382E703AC25
:101EA80043460E22414600943046FFF711FB00944A
:101EB800304643460F224146FFF730FB404679E75C
:101EC8003846FFF7F7FE00283FF473AF10F0F00331
:101ED8007FF46FAF024619463046FFF7EFFC002843
:101EE8007FF467AF19E700230DF10C090D2219469D
:101EF800CDF800903046FFF7EBFA3846FFF7DAFEE8
:101F080002064FF002040CD5039B00F07F00A040AE
:101F1800034438460393FFF7CDFE030604F1070494
:101F2800F2D40023039900F07F02A24001F5017169
:101F38008C18CDF8009019460D2230460394FFF70F
:101F4800EDFAEAE63846FFF7B5FE0123010300F093
:101F58000F0001F47021C2180A4330461946FFF7F2
:101F6800ADFC00287FF425AFD7E63846FFF7A2FE80
:101F7800010300F00F00032301F47021421CEBE77A
:101F88003846FFF797FE00283FF413AF10F0F00330
:101F98007FF40FAF024604213046FFF78FFC00287C
:101FA8007FF407AFB9E6032300F00F02013242F4D1
:101FB800202219463046FFF781FC00287FF4F9AE4D
:101FC800ABE63846FFF776FE00F0F00200F00F03AC
:101FD8001032013343EA0232E4E600BF30B503248D
:101FE8000D46C36C85B05A688DF80C40DC79120236
:101FF800083301A9284601928DF80D400293FFF796
:1020080085FE05B030BD00BF08B5FFF77DFE806CCA
:1020180008BD00BF08B5FFF777FEC06CC37900EBB9
:102028008300083008BD00BF08B504F0F1FC00BF0C
:1020380008B5FFF7F9FF00BF80B582B000AF786040
:10204800786800F09BFA00BF0837BD4680BD80B5B0
:1020580082B000AF78607B68596C7B689A6E7B6849
:102068005B6DDBB2786800F0FDF800BF0837BD464D
:1020780080BD000080B584B000AF78603960002270
:102088003968786800F096F80346FB81FB89002BD5
:1020980001D1044B01E04FF07E5318461037BD467E
:1020A80080BD00BF000080BF90B585B000AF7860EC
:1020B800396002223968786800F07CF80346FB81B1
:1020C80039687868FFF7D6FF0446FB890B4AA2FBFC
:1020D80003239B0B9BB21846FEF7EEFD03461946F9
:1020E8002046FEF73DFE034605491846FEF738FE32
:1020F800034618461437BD4690BD00BF1F85EB51F7
:102108000000C84290B585B000AF786039603B6880
:102118001B78FB733B685B78BB73FB7B194678685D
:1021280000F014F803461C46BB7B1946786800F09B
:102138002CF803461A462146034800F047FE00BF24
:102148001437BD4690BD00BFB401002080B483B0F1
:1021580000AF78600B46FB70FB78002B01D10023A1
:102168000EE0FB78012B01D1032309E0FB78022B59
:1021780001D1022304E0FB78032B01D10123FFE7FF
:1021880018460C37BD4680BC704780B483B000AF9A
:1021980078600B46FB70FB78012B01D1012304E02A
:1021A800FB78002B01D10023FFE718460C37BD460A
:1021B80080BC704780B485B000AFF860B960134642
:1021C800FB71FB790133BA6813441B781B021AB2FE
:1021D800FB79B9680B441B781BB213431BB29BB243
:1021E80018461437BD4680BC7047000080B584B0DF
:1021F80000AFF860B9601346FB71FB7919460948CE
:1022080000F062FD0346002B14BF01230023DBB25C
:10221800002B03D0B968F86800F058F900BF1037F0
:10222800BD4680BDB401002080B584B000AFF86021
:10223800B9601346FB71FB791946094800F085FD22
:102248000346002B14BF01230023DBB2002B03D06D
:10225800B968F86800F048F900BF1037BD4680BD7E
:10226800B401002080B584B000AFF860B9607A602E
:10227800FB70BB6840F25D22934204D17968F8682C
:10228800FFF740FF3EE0BB6840F23E2293420AD18E
:102298007968F868FFF708FF034600221946F868CE
:1022A800FFF7A4FF2EE0BB6840F26D2293420AD1EB
:1022B8007968F868FFF7F8FE034601221946F868BE
:1022C800FFF794FF1EE0BB6840F24D2293420AD10B
:1022D8007968F868FFF7E8FE034600221946F868AF
:1022E800FFF7A2FF0EE0BB6840F27D22934209D1BE
:1022F8007968F868FFF7D8FE034601221946F8689E
:10230800FFF792FF00BF1037BD4680BD80B584B08F
:1023180000AFF8600B467A60FB72FB7A002B07D19E
:102328007B68042240F21D21F86800F0FFF809E0FC
:10233800FB7A012B06D17B68042240F22D21F86834
:1023480000F0F4F800BF1037BD4680BD80B582B0FC
:1023580000AF786039604FF000013868FEF7B2FED0
:102368000346002B01D0012300E00023184608375C
:10237800BD4680BD80B586B000AFF860B9607A60B0
:10238800B9687868FEF7A0FD03467B614FF07E517F
:102398007869FEF7A1FE0346002B02D04FF07E536A
:1023A8007B6107497869FEF7DBFC03461846FEF7B0
:1023B8009DFE03469BB218461837BD4680BD00BF38
:1023C8000000484780B584B000AF786008461146E1
:1023D8001A460346FB700B463B801346BB70BB781E
:1023E800012B02D0BB78002B15D1FB781B12DBB276
:1023F8003B73FB787B733B881B12DBB2BB733B8858
:10240800DBB2FB7307F10C0304221946786800F06D
:1024180006F80346FFE718461037BD4680BD80B56D
:1024280086B000AFF860B9601346FB71FB790121F3
:10243800184604F0D3F903463B610123FB75FA7D86
:10244800FB799A420EDCFB7D3A691344F979FA7DEF
:102458008A1A1146BA680A4412781A70FB7D013349
:10246800FB75ECE73B6918461837BD4680BD000090
:1024780080B586B000AFF860B9601346FB71B968E3
:10248800F868FFF763FF0346FB75FB7D002B03D15C
:10249800BB6883F00043BB60BA680B49F868FFF774
:1024A80069FF0346BB82FB79BA8AF97DF868FFF7B2
:1024B80089FF0246FB791946F868FFF727FF00BF36
:1024C8001837BD4680BD00BF0000C84280B582B045
:1024D80000AF78603960012239687868FFF7C8FF73
:1024E80000BF0837BD4680BD80B582B000AF7860B8
:1024F8003960002239687868FFF7BAFF00BF0837EB
:10250800BD4680BD80B582B000AF786001224FF033
:1025180000017868FFF7ACFF00224FF000017868EF
:10252800FFF7A6FF00BF0837BD4680BD80B584B061
:1025380000AFF8607B600B467B8113467B72FB68BB
:102548007A685A667A7AFB68DA63FB6800229A63CB
:10255800FB6800225A637A89FB68DA62FB6803F138
:102568002C01FB685A6EFB686033034801F059FD83
:1025780000BF1037BD4680BD3C02002080B582B048
:1025880000AF78607B6800225A617B684FF6FF7263
:102598005A607B6800229A607B6800225A607B68D8
:1025A80000229A607B6801221A627B6801225A62C3
:1025B8007B6804331946034801F0C7FC00BF08379D
:1025C800BD4680BD3C02002080B483B000AF786077
:1025D800044A7B681A607B6818460C37BD4680BC85
:1025E800704700BFE86A000880B483B000AF786025
:1025F800044A7B681A607B6818460C37BD4680BC65
:10260800704700BFE86A000880B582B000AF786004
:102618007868FFF7E9FF786802F0B7FF7B6818462B
:102628000837BD4680BD000080B582B000AF786035
:1026380039607B68012B0CD13B684FF6FF729342DF
:1026480007D10648FFF7C0FF054A0649034802F0CC
:102658009EFF00BF0837BD4680BD00BF9400002024
:1026680000000020F125000880B500AF4FF6FF718B
:102678000120FFF7D9FF80BD80B483B000AF786038
:102688007B6823F0004318460C37BD4680BC704772
:1026980090B585B000AF78602F4801F03FFA7B68AD
:1026A800A433042219462C4801F09AFA0023FB733C
:1026B800FB7B7A6892F8A020934249DA7B68D3F8CA
:1026C8009C20FB7B1B0113441B781C467B68D3F8BA
:1026D8009C20FB7B1B01134458687B68D3F89C2023
:1026E800FB7B1B011344DB681946FEF72FFA0346F0
:1026F80019467A682346DB001B1B9B0013440C33E6
:1027080019607B68D3F89C20FB7B1B0113441B7862
:102718001C467B68D3F89C20FB7B1B0113449868FC
:102728007B68D3F89C20FB7B1B011344DB681946AC
:10273800FEF70CFA034619467A682346DB001B1B92
:102748009B00134410331960FB7B0133FB73AFE725
:1027580000BF1437BD4690BDC801002080B487B0C3
:1027680000AFF860B9607A600023FB75FB7D032B2E
:1027780010DCFA7DFB7D9B0079680B441968B8680A
:102788001346DB009B1A9B0003441960FB7D013351
:10279800FB75EBE700BF1C37BD4680BC704780B4B3
:1027A80083B000AF78607B68A43318460C37BD4609
:1027B80080BC7047B0B584B000AF78607B681C1DE2
:1027C8007868FFF7ECFF03461A4621467868FFF75A
:1027D800C5FF7B6893F874301946022000F01BFA95
:1027E80003460C4618462146FEF78CF90346BB60A3
:1027F8000023FB73FB7B032B41DCFA7B79681346D0
:10280800DB009B1A9B000B4404331B68002B0AD186
:10281800FA7B79681346DB009B1A9B000B44143340
:10282800194A1A6027E0FC7BFA7B79681346DB00BB
:102838009B1A9B000B4404331B681846FEF738FAB2
:1028480002467B689B6F19461046FEF789FA0346D5
:102858001D46B868FEF72CFA034619462846FEF7C7
:1028680033FB034619467A682346DB001B1B9B0093
:10287800134414331960FB7B0133FB73BAE700BFC1
:102888001037BD46B0BD00BF000080BF84B090B512
:1028980083B000AF786007F11C0080E80E003B7F32
:1028A80019467A680B46DB005B1A9B001344143305
:1028B8001C68BB6A16491846FEF748F903461946CC
:1028C8002046FEF709FC0346002B18D03B7F19462B
:1028D8007A680B46DB005B1A9B00134414331C68B0
:1028E800BB6A0B491846FEF733F9034619462046DA
:1028F800FEF7D4FB0346002B01D0012300E00023A0
:1029080018460C37BD46BDE8904004B0704700BF7C
:102918008FC2753D84B090B585B002AF786007F17D
:102928001C0080E80E00BB6A009307F11C030ECB65
:102938007868FFF7ABFF0346002B14BF0123002381
:10294800DBB2002B17D03B7F19467A680B46DB00B9
:102958005B1A9B00134418334FF000021A603B7F48
:1029680019467A680B46DB005B1A9B0013441C333C
:1029780001221A70B7E03B7F19467A680B46DB00E4
:102988005B1A9B00134414331B683A6A11461846B5
:10299800FEF798FB0346002B16D03B7F19467A6852
:1029A8000B46DB005B1A9B0013441833514A1A602C
:1029B8003B7F19467A680B46DB005B1A9B00134481
:1029C8001C3301221A708EE03B7F19467A680B4649
:1029D800DB005B1A9B00134414331B68BA6A114668
:1029E8001846FEF779FB0346002B3ED03B7F1C467A
:1029F8003B7F19467A680B46DB005B1A9B00134441
:102A080014331B68BA6A11461846FEF79FF8034646
:102A180018463B7F19467A680B46DB005B1A9B0019
:102A280013440C331B681946FEF74EFA0346184642
:102A3800FFF722FE03462F491846FEF791F9034691
:102A480019467A682346DB001B1B9B001344183386
:102A580019603B7F19467A680B46DB005B1A9B00BE
:102A680013441C3301221A703DE03B7F1C463B7F18
:102A780019467A680B46DB005B1A9B001344143333
:102A88001B68BA6A11461846FEF760F803461846EE
:102A98003B7F19467A680B46DB005B1A9B001344A0
:102AA80010331B681946FEF70FFA03461846FFF75E
:102AB800E3FD03460F491846FEF752F90346194647
:102AC8007A682346DB001B1B9B00134418331960EC
:102AD8003B7F19467A680B46DB005B1A9B00134460
:102AE8001C3300221A700C37BD46BDE8904004B074
:102AF800704700BF0000C84280B586B002AF78605A
:102B08000023FB73FB7B7A6892F8A02093420FDACC
:102B18007B68D3F89C20FB7B1B011344DA68009286
:102B28000ECB7868FFF7F6FEFB7B0133FB73E9E712
:102B380000BF1037BD4680BD80B584B000AF786057
:102B48007B685B6BFB607B681B6DBB60B968054885
:102B5800FFF7CAFCF9680348FFF7B8FC00BF103755
:102B6800BD4680BD9400002080B582B000AF78607B
:102B78007868FFF71FFE7868FFF7BEFF7868FFF7F1
:102B8800DBFF00BF0837BD4680BD0000B0B483B08E
:102B980000AF78600E4A7B681A607B680D4A03F1C3
:102BA8007C0415460FCD0FC495E80F0084E80F008C
:102BB8007B6803F17C027B68C3F89C207B68022257
:102BC80083F8A0207B6818460C37BD46B0BC704718
:102BD800306B0008086B000880B483B000AF7860E1
:102BE800044A7B681A607B6818460C37BD4680BC6F
:102BF800704700BF306B000880B582B000AF7860C6
:102C08007868FFF7E9FF786802F0BFFC7B68184630
:102C18000837BD4680BDB0B582B000AF78600B46BE
:102C2800FB707868FDF758FC04460D46FB7818469B
:102C3800FDF742FC02460B462046294602F0BCFD41
:102C480003460C46184621460837BD46B0BD00006D
:102C580080B582B000AF786039607B68012B0CD1F9
:102C68003B684FF6FF72934207D10648FFF78EFF85
:102C7800054A0649034802F08AFC00BF0837BD46EA
:102C880080BD00BF0001002000000020E12B0008EB
:102C980080B500AF4FF6FF710120FFF7D9FF80BD67
:102CA80080B582B000AF78607B6801221A717B68BA
:102CB80000225A71034802F04FF900BF0837BD4699
:102CC80080BD00BF6402002080B582B000AF78608C
:102CD8000B46FB70786800F0B3F8786800F0C0F82D
:102CE8000346012B0CBF01230023DBB2002B27D0A6
:102CF800FB78002B0DD1786800F0BDF80346032B54
:102D080005D0786800F0B7F80346022B01D10123FB
:102D180000E00023002B01D0012312E0FB78012BF7
:102D280007D1786800F0A7F80346012B01D10123E9
:102D380000E00023002B01D0012302E0002300E083
:102D4800002318460837BD4680BD80B582B000AF65
:102D580078600B46FB70786800F072F8786800F0CD
:102D68007FF80346012B0CBF01230023DBB2002BA5
:102D780027D0FB78002B07D1786800F07CF8034651
:102D8800032B01D1012300E00023002B01D00123F4
:102D980018E0FB78012B0DD1786800F06CF8034639
:102DA800012B05D0786800F066F80346022B01D1A4
:102DB800012300E00023002B01D0012302E00023BF
:102DC80000E0002318460837BD4680BD80B582B0B4
:102DD80000AF78600B46FB701346BB707B68FA78CF
:102DE8005A717B68BA781A71FB78002B03D078681F
:102DF80000F008F802E0786800F012F800BF083721
:102E0800BD4680BD80B582B000AF7860034802F04F
:102E1800A3F800BF0837BD4680BD00BFA40200204C
:102E280080B582B000AF7860044802F0A5F87868F1
:102E380000F006F800BF0837BD4680BDA402002098
:102E480080B483B000AF7860044B1B6800225A62DC
:102E580000BF0C37BD4680BC704700BFA4020020ED
:102E680080B483B000AF78607B681B7918460C3754
:102E7800BD4680BC704780B483B000AF78607B6883
:102E88005B7918460C37BD4680BC704780B582B068
:102E980000AF78607868FFF7E3FF0346012B07D19E
:102EA8007868FFF7E8FF0346002B01D1012300E013
:102EB8000023002B01D0012300E000231846083727
:102EC800BD4680BD80B483B000AF7860044A7B689B
:102ED8001A607B6818460C37BD4680BC704700BF37
:102EE800546B000880B483B000AF7860044A7B68F4
:102EF8001A607B6818460C37BD4680BC704700BF17
:102F0800546B000880B582B000AF78607868FFF72E
:102F1800E9FF786802F039FB7B6818460837BD4638
:102F280080BD000080B582B000AF786039607B68F2
:102F3800012B0CD13B684FF6FF72934207D106482C
:102F4800FFF7C0FF054A0649034802F020FB00BF0F
:102F58000837BD4680BD00BFB40100200000002036
:102F6800ED2E000880B500AF4FF6FF710120FFF786
:102F7800D9FF80BD2448254B30B503604FF48073DA
:102F880083604FF4602300240125C361042385B0C6
:102F9800019402940394057304754460036100F07E
:102FA800CFFE08B100F0A4FA052301A91648019440
:102FB8000295039300F0F6FC08B100F099FA01239A
:102FC8000193022301A91048029300F0EBFC08B119
:102FD80000F08EFA0E230193032301A90A480293F5
:102FE80000F0E0FC08B100F083FA0F2301930423FA
:102FF80005480DEB0301029300F0D4FC08B100F082
:1030080077FA05B030BD00BFC80100200024014098
:10301800102230B5054689B00DEB0200002103F0FF
:1030280025FC2A68254B9A4245D1032403F56C43B5
:103038009A6904A942F400729A619A69204802F4D4
:1030480000720192019A9A6942F004029A619A699F
:1030580002F004020292029A9A6942F010029A61FE
:103068009B69049403F010030393039B059401F0F8
:103078006BFB3023134804A90493059401F064FB07
:10308800114C124B2046236000236360A360802309
:10309800E3604FF4007323614FF4006363612023FE
:1030A800A3614FF40053E36101F0F4F908B100F0B3
:1030B8001FFA2C62656209B030BD00BF00240140D0
:1030C8000008014000100140F801002008000240FB
:1030D80008B54FF0100E0B480B4B80E80840002352
:1030E8008360C36003614361037643768376C37666
:1030F8000377437700F0AEFE18B1BDE8084000F052
:10310800F7B908BD3C0200200064004010B5044631
:1031180086B01022002102A803F0A8FB2268214BE8
:103128009A423DD103F5D633DA6902A942F000721A
:10313800DA61DA691C4802F000720092009A9A6912
:10314800032442F004029A619B6903F0040301938B
:10315800019B4FF40063029301F0F6FA4FF4805399
:103168000293022302A910480393059401F0ECFA94
:1031780000220421132001F035F9132001F066F92B
:1031880000222146142001F02DF9142001F05EF9E7
:1031980000221520114601F025F9152001F056F9F5
:1031A80006B010BD0064004000080140124B07B58E
:1031B8005A690B2042F001025A6100225B691146EC
:1031C80003F001030193019B01F00CF90B2001F0BE
:1031D8003DF900220E20114601F004F90E2001F0FD
:1031E80035F900220F20114601F0FCF80F2001F0FC
:1031F8002DF903B05DF804FB001002402DE9F047FB
:103208004FF0100888B0424600210DEB080003F08B
:103218002DFB484B484F9A69484D42EA08029A618B
:103228009A69384602EA08020092009A9A694FF4AD
:10323800804142F020029A619A69002402F020023B
:103248000192019A9A694FF0010A42F004029A61C8
:103258009A694FF0020902F004020292029A9A69EE
:10326800032642F008029A619B69002203F00803D2
:103278000393039B01F054FB28460122042101F02B
:103288004FFB0022284648F2281101F049FB4FF471
:103298007C530DEB0801384604930594069401F01D
:1032A80053FA4FF480430DEB080138460493CDF8E8
:1032B80014A00694CDF81C9001F046FA48F2CF030A
:1032C8000DEB080138460493059601F03DFA48F2E3
:1032D8002C130DEB080128460493CDF814A006948E
:1032E800CDF81C9001F030FA0DEB08012846CDF816
:1032F80010800594069401F027FAC0230DEB08010D
:1033080028460493059601F01FFA4FF6FF730DEB5C
:1033180008010B480493059601F016FA04230DEBF7
:10332800080108480493059601F00EFA08B0BDE8B4
:10333800F08700BF00100240001001400008014063
:10334800000C01400014014080B582B000AF7860E5
:103358007B681B68104A934202D11048FFF7D2F8E5
:103368007B681B680E4A934211D120210D4801F059
:10337800DCFA0D48FFF78AFD0346002B14BF012332
:103388000023DBB2002B02D00848FFF7EDFB00BF9B
:103398000837BD4680BD00BF0010004094000020E3
:1033A8000004004000080140B40100200001002092
:1033B80080B582B000AF7860064B9B6E064A00214C
:1033C800786800F07CFE0348FEF741FE00BF08372E
:1033D800BD4680BD94000020D800002080B500AF15
:1033E80000F080FA00F01EF8FFF708FFFFF7DEFE96
:1033F800FFF7C0FDFFF76CFE00F024F900F0C6F9F6
:1034080000F064F90448FFF743F90448FFF748FC63
:103418000348FEF711FEFEE700010020B40100207A
:103428009400002080B596B000AF07F13003282241
:103438000021184603F01AFA07F11C0300221A604B
:103448005A609A60DA601A613B1D00221A605A605D
:103458009A60DA601A615A6102233B6301233B6474
:1034680010237B640223FB6400233B654FF4A01305
:103478007B6507F13003184601F05EFA0346002B1E
:1034880014BF01230023DBB2002B01D000F030F879
:103498000F23FB6102233B6200237B620023BB6294
:1034A8000023FB6207F11C030121184601F01EFCF2
:1034B8000346002B14BF01230023DBB2002B01D0ED
:1034C80000F016F802237B600023FB603B1D1846C2
:1034D80001F0CAFC0346002B14BF01230023DBB212
:1034E800002B01D000F004F800BF5837BD4680BD5E
:1034F80080B400AF00BFBD4680BC70470E4B82B0A1
:103508009A6942F001029A619A6902F001020092F6
:10351800009ADA6942F08052DA61DB69074A03F0FF
:1035280080530193019B536823F0E06343F00073D9
:10353800536002B0704700BF001002400000014015
:103548007047FEE7FEE7FEE7FEE770477047704703
:1035580000F0DAB9014801F01BB800BFF8010020FB
:10356800014801F015B800BFE4020020014801F04D
:103578000FB800BF28030020014800F022BE00BF9A
:103588003C020020FFF7F8BFFFF7F6BF014801F043
:103598000DBD00BF64020020014801F007BD00BF57
:1035A800A40200200120704708B503F02DF9162366
:1035B80003604FF0FF3008BD08B503F025F9162366
:1035C8000360FEE708B50A4B0246196809B90949BC
:1035D80019606946186802448A4206D903F014F94A
:1035E8000C2303604FF0FF3008BD1A6008BD00BF10
:1035F800BC010020B40300200F4B1A6842F00102FE
:103608001A6059680D4A0A405A601A6822F0847292
:1036180022F480321A601A6822F480221A605A68EA
:1036280022F4FE025A604FF41F029A604FF00062C3
:10363800034B9A60704700BF001002400000FFF87B
:1036480000ED00E010B58CB01022002103A803F0B3
:103658000DF91422002107A803F008F900234022DD
:10366800184819490193029380E8060083604FF4D3
:103678007A7203618023C260836101F085FD08B11D
:10368800FFF736FF4FF4805303A90E48039301F068
:10369800C2FD08B1FFF72CFF002407A909480794C9
:1036A800089401F09EFE08B1FFF722FF01A9054822
:1036B8000194029401F0BCFE08B1FFF719FF0CB0A9
:1036C80010BD00BF640200200004004007B546F6A4
:1036D8005F5212481249002380E8060040F6B832CB
:1036E800009301938360C260836101F04DFD08B1CE
:1036F800FFF7FEFE0821094801F060FD08B1FFF759
:10370800F7FE0023694605480093019301F090FEF7
:1037180008B1FFF7EDFE03B05DF804FBA40200203A
:103728000010004007B50368154A934214D1154BA1
:103738001D20DA69022142F00202DA61DB69002207
:1037480003F002030093009B00F04CFE1D2000F0E4
:103758007DFE03B05DF804FB0B4A9342F9D1094B97
:103768003620DA69012142F01002DA61DB690022B1
:1037780003F010030193019B00F034FE3620E6E7C6
:1037880000040040001002400010004008B54FF44B
:10379800E13E0A480A4B0C2280E8084000234261B7
:1037A8008360C36003618361C36101F09BFE18B14C
:1037B800BDE80840FFF79CBE08BD00BF6C030020B1
:1037C8000038014070B5064686B01022002102A8D4
:1037D80003F04CF832682B4B9A4251D103F5584309
:1037E8009A6902A942F480429A619A69264802F4C9
:1037F80080420092009A9A69002542F004029A6178
:103808009B69224C03F004030193019B4FF400735E
:103818000293022303930323059300F095FF4FF4CB
:103828008063194802A902930395049500F08CFF60
:10383800174B204684E828008023A560E3602561B3
:103848006561A561E56100F025FE08B1FFF750FE4E
:103858004FF0100C0F4B746366620F4C802284E8A3
:10386800081000232046A360E26023616361A3611E
:10387800E36100F00FFE08B1FFF73AFE34636662B9
:1038880006B070BD00380140000801402803002040
:103898005800024044000240E402002038B50E4BB4
:1038A800054618784FF47A73B3FBF0F30B4A1068A7
:1038B800B0FBF3F000F0D8FD044658B90F2D09D835
:1038C800024629464FF0FF3000F08CFD044B20469D
:1038D8001D6038BD012038BD08000020040000200C
:1038E8000C000020074A08B51368032043F01003B2
:1038F800136000F065FD0020FFF7D0FFFFF7FEFD25
:10390800002008BD00200240034A044B11681B78C0
:103918000B441360704700BFAC0300200800002070
:10392800014B1868704700BFAC0300207047436A1A
:1039380010B59A6A12F0500F1BD19A6A42F40072BD
:103948009A621A68926802F46022B2F5602F0CD16C
:103958001A7B52B99A6A22F480729A629A6AD204DD
:103968005EBF9A6A42F001029A621846FFF7DEFFCC
:1039780010BD1B6ABDE810401B6B1847704708B59F
:10398800406AFFF7FBFF08BD7047406A08B5836AC5
:1039980043F040038362C36A43F00403C362FFF742
:1039A800F3FF08BD002373B5019390F82430012B71
:1039B80074D001234D6880F82430062D02684FEA40
:1039C80085030C6825D82B441F25566B053B9D4065
:1039D80026EA050504FA03F32B435363092C4FEA3F
:1039E80044038D682FD907262344D1681E3B9E4087
:1039F80021EA060105FA03F30B43D360A4F110038F
:103A0800012B2BD90023002280F82420184602B06D
:103A180070BD0C2D0BD82B441F25166B233B9D40E6
:103A280026EA050504FA03F32B431363D6E72B4470
:103A38001F25D66A413B9D4026EA050504FA03F393
:103A48002B43D362CAE70726116923449E4021EA23
:103A5800060105FA03F30B431361CFE7104B9A42B3
:103A680016D193681B02CDD49368102C43F400033D
:103A78009360C7D10B4B0C4A1B68B3FBF2F20A23C5
:103A880053430193019B002BBCD0019B013BF8E7FA
:103A9800836A43F0200383620123B4E70223B5E776
:103AA800002401400400002040420F00002373B5A9
:103AB8000193036804469A68D20702D5002002B031
:103AC80070BD9A6842F001029A60124B124A1B6854
:103AD800B3FBF2F30193019BC3B9FFF721FF06463D
:103AE80023689D6815F00105E8D1FFF719FF801BD1
:103AF8000228F5D9A36A84F8245043F01003A3627E
:103B0800E36A012043F00103E362D8E7019B013B2C
:103B1800E0E700BF0400002040420F0090F8243086
:103B280010B5012B044654D0012380F82430FFF748
:103B3800BDFF002849D1A36A274A23F4407323F024
:103B4800010343F48073A3622368934204D1234999
:103B58004A6812F4702F2ED1A26A22F48012A2624F
:103B68005A68520541BFA26A22F4405242F4805278
:103B7800A262A26A12F480521CBFE26A22F0060214
:103B8800E262002284F824206FF002021A609A6828
:103B980002F46022B2F5602F13D10F4A934205D187
:103BA800A2F58062526812F4702F0AD19A6842F422
:103BB800A0029A6010BDA26A42F48012A2624A680A
:103BC800CFE79A6842F48012F3E7002384F82430A0
:103BD80010BD022010BD00BF002801400024014094
:103BE8002DE9D8419046404B026804469A420F4658
:103BF80002D03E498A4203D15B6813F4702F6ED11C
:103C080094F82430012B6CD00123204684F824300A
:103C1800FFF74CFF064600285DD1A06A216820F412
:103C28007060324B20F0010040F480709942A0622D
:103C380004D12D4A536813F4702F3ED1A36A23F49C
:103C48008013A3624B685A0505D5A36A23F4405331
:103C580043F48053A362A36A206A13F4805318BF05
:103C6800E36A3A4618BF23F00603E362002384F8A8
:103C780024301F4B4C3183621E4BC3621E4B0363BF
:103C88006FF0020341F84C3C51F8443C43F4807314
:103C980041F8443C434600F03DFC23689A6802F42E
:103CA8006022B2F5602F9A680CBF42F4A00242F479
:103CB80080129A603046BDE8D881A36A43F4801325
:103CC800A36253685B0541BFA06A20F4405040F4EA
:103CD8008050A062BFE7002384F82430EAE7012679
:103CE800E8E70226E6E700BF00240140002801407B
:103CF80037390008873900089339000838B5036850
:103D080004469A68D20701D4002038BD9A6822F088
:103D180001029A60FFF704FE054623689B68DB07EB
:103D2800F2D5FFF7FDFD401B0228F6D9A36A012052
:103D380043F01003A362E36A43F00103E36238BD72
:103D4800F8B50446002877D0836A23B9C36280F89F
:103D58002430FFF75DF92046FFF7D0FFA36A13F080
:103D680010036BD1002869D1A26A374922F488521E
:103D780022F0020242F00202A26294E824008A427F
:103D8800E16904D1B1F5402F08BF4FF40021267B2B
:103D980045EA46052943A568B5F5807F35D0012D4C
:103DA80008BF4FF48073277D012F06D17EBBA6691B
:103DB800013E43EA463343F400635668B5F5807F15
:103DC80026F4694643EA0603536096681F4B03EAE4
:103DD800060343EA0103936001D0012D20D1236932
:103DE800013B1B05D56A25F470052B43D362926805
:103DF800174B1340994215D10023E362A36A23F0BD
:103E0800030343F00103A362F8BD2B46CBE7A66A80
:103E180046F02006A662E66A46F00106E662CCE7AE
:103E28000023DFE7A36A23F0120343F01003A36221
:103E3800E36A43F00103E3620120F8BDA36A43F09B
:103E48001003A362F8E700BF003C0140FDF7E1FF63
:103E5800FE0E1FFF38B5044600286ED090F82030BB
:103E68000BB9FFF753F92268136823F002031360B4
:103E7800FFF756FD054623685A68910751D41A681A
:103E880042F001021A60FFF74BFD054623685A68A5
:103E9800D20754D5227E0020012A1A680CBF42F0AE
:103EA800800222F080021A60627E012A1A680CBF22
:103EB80042F0400222F040021A60A27E012A1A68EB
:103EC8000CBF42F0200222F020021A60E27E012A92
:103ED8001A680CBF22F0100242F010021A60227F0A
:103EE800012A1A680CBF42F0080222F008021A6080
:103EF800627F012A1A680CBF42F0040222F0040211
:103F08001A60E168A2680A4321690A4361690A43A1
:103F1800616801390A43DA610123606284F820305C
:103F280038BDFFF7FDFC401B0A28A4D9636A43F497
:103F380000336362052384F82030012038BDFFF781
:103F4800EFFC401B0A28A1D9F0E790F8203070B5A3
:103F5800013B012B5FD8012403684869D3F800228C
:103F680042F00102C3F8002200F01F0204FA02F234
:103F7800D443D3F81C522540C3F81C52CD6985BBE5
:103F8800D3F80C52CE682540C3F80C528D8803EB49
:103F9800C00045EA0645C0F840528E680D8845EADB
:103FA8000645C0F84452886968BBD3F8040220402B
:103FB800C3F80402086950BBD3F814022040C3F8C0
:103FC8001402096A0020012902BFD3F81C120A430F
:103FD800C3F81C22D3F8002222F00102C3F8002201
:103FE80070BD012DDFD1D3F80C520E681543C3F80C
:103FF8000C528D8803EBC00045EA0645C0F84052D4
:104008008E688D89CBE7D3F804021043D0E7D3F844
:1040180014021043D3E7436A43F480234362012028
:1040280070BDF0B590F820500668013D012DB468C8
:1040380041D814F0E05F3AD0C4F30164032C4FF088
:10404800010505D1436A43F4000343620120F0BD32
:10405800A5401D608868CF6804F1180310BB086884
:1040680047EA40501B01F05008692401097D3319C3
:10407800C3F88401012908BFD3F88411344404BF6C
:1040880041F48071C3F8841151680020C4F88C1180
:104098001268C4F88821D3F8802142F00102C3F8DD
:1040A8008021F0BD4D68384340EAC500DAE7436A2D
:1040B80043F40013C9E7436A43F48023C5E7F0B526
:1040C80090F82040013C012C6BD8066841B9F4688F
:1040D800A40707D1436A43F4001343620120F0BDEB
:1040E8003469F5E70C013519D5F8B07107F0040704
:1040F8009760002F4BD1D5F8B0717F0D1760D5F8B8
:10410800B071264407F00207D760D5F8B47107F0FC
:104118000F071761D5F8B471D5F8B451C7F307275D
:104128002D0C97615561D6F8B8211A70026822449F
:10413800D2F8B821120A5A7002682244D2F8B8217B
:10414800120C9A7002682244D2F8B821120EDA7062
:1041580002682244D2F8BC211A7102682244D2F8BB
:10416800BC21120A5A7102682244D2F8BC21120CEE
:104178009A7102681444D4F8BC21120EDA710368EB
:1041880051B9DA6842F02002DA600020F0BDD5F8B3
:10419800B071FF085760B2E71A6942F020021A614D
:1041A800F3E7436A43F4802397E770477047704703
:1041B800704770477047704770477047704770473F
:1041C80070472DE9F84F036805465E69D3F80490F7
:1041D80016F001049F68D3F80CB0D3F810A0D3F8F8
:1041E800188022D017F0010407D00122B9079A607D
:1041F80040F1A380FFF7D9FF0024FB0509D54FF450
:1042080080722B68B8059A6040F1A5802846FFF7B0
:10421800CDFFFB0309D54FF480322B68B8039A60B1
:1042280040F1A7802846FFF7C2FF330707D51BF0E8
:10423800100F1FBF10222B6844F40074DA60770750
:1042480008D51BF0080F05D008222B682846DA602D
:10425800FFF7B2FFB00706D52B68DB68990702D0D5
:104268002846FFF7A8FF720607D51AF0100F1FBFE0
:1042780010222B6844F480641A61B30608D51AF03A
:10428800080F05D008222B6828461A61FFF795FF0A
:10429800F70606D52B681B69980702D02846FFF752
:1042A80087F8B10308D519F0100F05D010222B6834
:1042B80028465A60FFF782FFF20308D519F0080F65
:1042C80005D008222B6828465A60FFF778FF330488
:1042D8002AD519F0040F2A6824D0F70504D518F058
:1042E800010F18BF44F00104B00504D518F0020FFF
:1042F80018BF44F00204710504D518F0040F18BF64
:1043080044F0040433050DD518F070030AD0302B9F
:104318004CD03CD8102B43D0202B44D0936923F0A9
:1043280070039361042353602CB16B6A28461C43C5
:104338006C62FFF745FFBDE8F88F7A0705D417F0E0
:10434800080405D1FFF734FF57E74FF4006454E73A
:104358004FF4805451E7790502D544F4005458E7E6
:104368003A0502D544F4804453E72846FFF721FF75
:104378004FE7790302D544F4004456E73A0302D5DF
:1043880044F4803451E72846FFF714FF4DE7502BDB
:104398000FD0602B10D0402BC0D144F04004BDE7B3
:1043A80044F00804BAE744F01004B7E744F02004E6
:1043B800B4E744F08004B1E744F48074AEE7000049
:1043C800074A0002D36800F4E06023F4E0631B04AA
:1043D8001B0C43F0BF6343F400330343D3607047BF
:1043E80000ED00E0174B30B5DC68C4F30224C4F1DB
:1043F8000703251D042B28BF0423062D4FF00105B4
:1044080098BF002405FA03F303F1FF3388BF033C88
:104418001940A14005FA04F4013C2240002842EA70
:1044280001024FEA0212A9BF00F16040064BD2B266
:1044380000F56140BBBF00F00F00D2B280F8002346
:104448001A5430BD00ED00E014ED00E0002808DB50
:104458000123420900F01F0003FA00F0014B43F862
:104468002200704700E100E00138B0F1807F0AD2F5
:10447800F021064B064A586082F8231000200722D4
:1044880098601A6070470120704700BF10E000E094
:1044980000ED00E010B5002832D00168194B142453
:1044A800994225D8184AA3F207430A44B2FBF4F20A
:1044B800920002648468C36343680A682343C4683B
:1044C80022F47F522343046922F0300223434469D3
:1044D800234384692343C469234313430B600122A4
:1044E800002380F82120836380F82030184610BD0F
:1044F800064B0B44B3FBF4F39B000364044BD9E76E
:10450800012010BD07040240F8FFFDBFF8FBFDBF06
:1045180000040240F0B590F82040012C35D0012469
:1045280090F8215080F82040A5424FF000064FF047
:10453800020428D180F82140046886632668076C45
:1045480026F001062660C66BBD407560636043684F
:104558000568102BC36A0BBFA260A160E160E2602E
:104568004BB1236843F00E0323602B68002043F00F
:1045780001032B60F0BD236823F004032360236844
:1045880043F00A03F0E780F820600220F0BD000045
:1045980070B40425C66B026C3468036895402542E4
:1045A800196855D04D0753D51A6896065EBF1A6824
:1045B80022F004021A60604A93421FD902F562721F
:1045C800934214D01432934213D01432934212D02F
:1045D800143293420CBF4FF480434FF48023574A60
:1045E8005360C36A002B00F0A58070BC18470423F1
:1045F800F5E74023F3E74FF48063F0E750498B4237
:1046080016D014318B4215D014318B4214D014318A
:104618008B4214D014318B4214D014318B4214D0F5
:10462800934214BF4FF480234FF08063454AD7E785
:104638000423FBE74023F9E74FF48063F6E74FF4E0
:104648008043F3E74FF48023F0E74FF48003EDE76E
:1046580002259540254257D08D0755D51A689406EE
:1046680006D41A6822F00A021A60012280F8212072
:10467800314A93421ED902F56272934213D0143222
:10468800934212D01432934211D0143293420CBF89
:104698004FF400534FF40033284A5360002380F846
:1046A8002030836A9EE70223F6E72023F4E74FF4DD
:1046B8000073F1E722498B4216D014318B4215D092
:1046C80014318B4214D014318B4214D014318B42E4
:1046D80014D014318B4214D0934214BF4FF40033DA
:1046E8004FF00073174AD8E70223FBE72023F9E7C6
:1046F8004FF40073F6E74FF40053F3E74FF4003339
:10470800F0E74FF40013EDE708259540254211D056
:1047180009070FD5196821F00E011960012303FA62
:1047280002F27260836380F82130002380F8203021
:10473800036B57E770BC70478000024000040240DA
:1047480008000240000002402DE9F74F00242646E9
:104758006C4F6D4BDFF8B8E1DFF8B8C10A6832FA80
:1047680006F502D103B0BDE8F08F4FF0010808FA52
:1047780006F802EA0802904540F084804D68122D40
:1047880000F0B18000F28780022D00F0A9807BD86C
:10479800002D00F08C80012D00F0A0804FF00F0953
:1047A800FF2A93BF824606F18045083DD0F800B045
:1047B80092BFB500D0F804B0AD0009FA05F82BEAAD
:1047C800080804FA05F588BF00F1040A48EA050557
:1047D800CAF80050D1F804A01AF0805F52D0BD6921
:1047E80026F0030845F00105BD61BD6908F1804860
:1047F80005F00105019508F5803806F0030B019DC9
:104808004FEA8B0BD8F8085009FA0BF925EA090981
:104818003E4DA8426CD005F58065A8426AD005F5E2
:104828008065A84268D005F58065A84266D005F580
:104838008065A84264D070450CBF0525062505FA99
:104848000BF545EA0905C8F808501D681AF4803FB9
:1048580014BF154395431D605D681AF4003F14BFEB
:10486800154395435D609D681AF4801F14BF154376
:1048780095439D60DD681AF4001F14BF2A4325EA9A
:104888000202DA60013669E7032D25D0112D85D1A2
:10489800CC68043482E7654509D012D8DFF87890EF
:1048A8004D4504D009F580394D457FF477AF8C68C4
:1048B800E4B1012C0CBFC0F81080C0F814800824A3
:1048C8006CE7DFF858904D45F1D009F580394D4532
:1048D800EDD0A9F58019E7E700245FE7CC685DE72C
:1048E800CC6808345AE7CC680C3457E7042455E7F9
:1048F8000025A4E70125A2E70225A0E703259EE7F6
:1049080004259CE700100240000401400008014013
:10491800001C01400000211000001110000031109F
:104928000AB1016170470904FBE7C3680B4214BF71
:1049380041610161704700002DE9F341054608B95E
:1049480001203CE00368DB0710D42B689F075DD487
:104958002B68190700F194802B685A0700F1BE8074
:10496800E869002840F02C81002028E08F4C63681B
:1049780003F00C03042B07D0636803F00C03082B27
:1049880009D16368DE0306D523689C03DDD56B680F
:10499800002BDAD1D4E76B68B3F5803F12D12368D6
:1049A80043F480332360FEF7BBFF06462368980371
:1049B800CBD4FEF7B5FF801B6428F7D9032002B0DB
:1049C800BDE8F0819BB9236823F480332360236812
:1049D80023F480232360FEF7A3FF06462368990388
:1049E800B3D5FEF79DFF801B6428F7D9E6E7B3F53A
:1049F800A02F236803D143F480232360CFE723F457
:104A080080332360236823F48023CBE7674C6368F3
:104A180013F00C0F07D0636803F00C03082B10D1B8
:104A28006368DA030DD423689B0702D52B69012B31
:104A380086D123686A6923F0F80343EAC203236036
:104A480086E72A695A4B6AB101221A60FEF768FFA5
:104A5800064623689F07ECD4FEF762FF801B0228F6
:104A6800F7D9ABE71A60FEF75BFF0646236898079D
:104A78007FF56EAFFEF754FF801B0228F6D99DE73D
:104A8800AA694A4C4B4BDAB101221A60FEF748FF7B
:104A98000646636A9B070DD54FF4FA52464B1B68CE
:104AA800B3FBF2F3019300BF019B5A1E0192002B46
:104AB800F9D151E7FEF734FF801B0228E9D97DE7D9
:104AC8001A60FEF72DFF0646636A9F077FF544AF1D
:104AD800FEF726FF801B0228F6D96FE7334CE369FF
:104AE800D80024D40127E36943F08053E361E369E4
:104AF80003F080530093009B304E3368D90518D5D6
:104B0800EB68012B26D1236A43F001032362FEF7E9
:104B180007FF41F288368046236A9B073FD5002F5E
:104B28003FF41EAFE36923F08053E36118E70027E1
:104B3800E2E7336843F480733360FEF7F1FE8046A2
:104B48003368DA05DCD4FEF7EBFEA0EB0800642836
:104B5800F6D933E7ABB9236A41F2883823F0010369
:104B68002362236A23F004032362FEF7D9FE064674
:104B7800236A9807D3D5FEF7D3FE801B4045F7D9A3
:104B88001CE7052B236A03D143F004032362BAE729
:104B980023F001032362236A23F00403B6E7FEF738
:104BA800BFFEA0EB0800B042B6D907E700100240EC
:104BB800000042428004424204000020007000408D
:104BC8002A4B5A681C4602F00C02082A3DD00023E2
:104BD800274E022833602BD1FEF7A2FE0746236832
:104BE80099011FD42B6AB3F5803F05D16268A96883
:104BF80022F400320A436260696A62680B4322F455
:104C080074121343636001233360FEF789FE05467F
:104C180023689A013FF5A8AEFEF782FE401B0228E2
:104C2800F6D9CBE6FEF77CFEC01B0228D7D9C5E62D
:104C3800FEF776FE054623689B017FF595AEFEF7E5
:104C48006FFE401B0228F6D9B8E601283FF4B7AE3C
:104C580058682B6A00F480329A427FF471AE6B6A0E
:104C680000F47010C01A18BF0120A8E60010024016
:104C78006000424230B5194B87B002AC03F1100511
:104C8800224618685968083303C2AB421446F7D164
:104C980001238DF80430022311498DF805304B6843
:104CA80003F00C02082A17D1C3F3834206A8024472
:104CB800DB0312F8102C0CD54B680A48C3F34043A9
:104CC800504306AA134413F8143CB0FBF3F007B0A2
:104CD80030BD05485043FAE70248F8E7726B000810
:104CE8000010024000127A0000093D002DE9F04151
:104CF8000D46044610B90120BDE8F081454A136805
:104D080003F007038B4229D321688E0731D4CA07E1
:104D180044D4404A136803F007039D4267D32268CE
:104D28003D4D12F0040F6ED1130706D56B6822694A
:104D380023F4605343EAC2036B60FFF79BFF6B6881
:104D4800364AC3F30313D35CD840354B1860354B50
:104D58001868FEF7A3FD0020BDE8F081136823F072
:104D680007030B431360136803F007039942C2D18A
:104D7800CAE7294B11F0040F1EBF5A6842F4E062DB
:104D88005A60080742BF5A6842F460525A605A682B
:104D9800A06822F0F00202435A60B8E762681E4E2B
:104DA800012A33681BD113F4003FA4D0736841F281
:104DB800883823F0030313437360FEF7B1FD0746F9
:104DC8007368626803F00C03B3EB820FA1D0FEF79F
:104DD800A7FDC01B4045F3D90320BDE8F081022A96
:104DE80002D113F0007FE0E713F0020FDDE713684C
:104DF80023F007032B431360136803F007039D4256
:104E08007FF479AF8BE76B68E16823F4E0630B43C9
:104E18006B6089E70020024000100240826B0008A6
:104E2800040000200C000020044B054A5B68C3F313
:104E38000223D35C034A1068D84070470010024030
:104E4800926B000804000020044B054A5B68C3F31A
:104E5800C223D35C034A1068D84070470010024050
:104E6800926B00080400002003682DE9F341D9077C
:104E7800054620D5354CE369DA0032D40127E369C9
:104E880043F08053E361E36903F080530193019B8E
:104E98002F4E3368DB0526D5236A13F4407336D1C9
:104EA800236A6A6823F44073134323621FB1E369DA
:104EB80023F08053E3612868830706D5234AA9684D
:104EC800536823F440430B43536010F010001BD089
:104ED8001E4A69695368002023F480030B4353601A
:104EE80012E00027D4E7336843F480733360FEF799
:104EF80017FD80463368D805CED4FEF711FDA0EB28
:104F080008006428F6D9032002B0BDE8F0816A6879
:104F180002F440729342C3D001200E4A236A106003
:104F2800002023F4407110602162D907B8D5FEF73C
:104F3800F7FC41F288380646236A9A07B0D4FEF790
:104F4800EFFC801B4045F7D9DDE700BF00100240A9
:104F5800007000404004424203680020DA6842F0D2
:104F68000102DA609A6802F00702062A1EBF1A6870
:104F780042F001021A6070470368DA6822F0010201
:104F8800DA6041F21112196A114208D140F2444222
:104F9800196A114202BF1A6822F001021A60002041
:104FA800704770477047704770477047036810B57F
:104FB8001A69044691070ED5DA6892070BD56FF087
:104FC80002021A6101229B6902779B0777D0FFF7DB
:104FD800EAFF0023237723681A69500710D5DA6897
:104FE80051070DD56FF004021A6102229B692277DE
:104FF80013F4407F204668D0FFF7D5FF00232377BE
:1050080023681A6912070FD5DA6810070CD56FF0F4
:1050180008021A610422DB692277990720465AD0D0
:10502800FFF7C1FF0023237723681A69D20610D53A
:10503800DA68D0060DD56FF010021A610822DB6914
:10504800227713F4407F20464BD0FFF7ACFF0023B4
:10505800237723681A69D10708D5DA68D20705D5F6
:105068006FF0010220461A61FEF76EF923681A698B
:10507800100608D5DA68110605D56FF080022046BB
:105088001A6100F0F4F923681A69520608D5DA683B
:10509800500605D56FF0400220461A61FFF785FFDC
:1050A80023681A69910622D5DA6892061FD56FF02F
:1050B80020022046BDE810401A6100F0D7B9FFF77A
:1050C80071FF2046FFF770FF83E7FFF76BFF20466D
:1050D800FFF76AFF92E7FFF765FF2046FFF764FFD7
:1050E800A0E7FFF75FFF2046FFF75EFFAFE710BDC1
:1050F800244A0368904212D002F5006290420ED012
:10510800B0F1804F0BD0A2F59832904207D002F54B
:105118008062904203D002F5806290421DD14A68B5
:1051280023F070031343174A904212D002F500622D
:1051380090420ED0B0F1804F0BD0A2F59832904239
:1051480007D002F58062904203D002F58062904257
:1051580003D1CA6823F4407313434A6923F08003D8
:10516800134303608B68C3620B688362054B9842E4
:1051780003D003F50063984201D10B69036301234F
:1051880043617047002C014010B50446A0B190F867
:105198003D3003F0FF021BB980F83C20FEF7C2FA4D
:1051A8000223206884F83D30211DFFF7A1FF012369
:1051B800002084F83D3010BD012010BD38B50D46E3
:1051C8000446E0B190F83D3003F0FF021BB980F8C7
:1051D8003C20FFF7E6FE0223211D84F83D302068BD
:1051E800FFF786FF236800201A6822F008021A6079
:1051F800196829431960012384F83D3038BD01201E
:1052080038BD10B584680A4324F47F4442EA032376
:105218002343836010BD90F83C3070B5012B0446E1
:105228004FF0020019D0012384F83D00206884F86B
:105238003C30836823F47F4323F0770383600B6853
:10524800402B65D015D8102B0CD007D853B10123AB
:10525800002084F83D3084F83C0070BD202B01D03C
:10526800302BF4D1826843F0070322F07002134315
:105278001AE0602B34D019D8502BE8D14A68CE6890
:10528800016A056A21F00A0125F0010505628369B2
:105298000A4323F0F00343EA06138361026283683A
:1052A80023F0700343F057038360D0E7702B0CD0D2
:1052B800B3F5005FCBD1CB684A688968FFF7A1FFD7
:1052C8002268936843F4804308E0CB684A68896899
:1052D800FFF797FF2268936843F077039360B6E778
:1052E8004D68CE68016A21F0100101628269036A83
:1052F80022F4704223F0A00343EA051342EA06327F
:1053080082610362836823F0700343F06703CBE78D
:105318004A68CE68016A056A21F00A0125F001058C
:10532800056283690A4323F0F00343EA06138361A5
:105338000262836823F0700343F04703B4E7006810
:1053480038B583684A6823F070030C68134323F068
:1053580007032343502A83601ED003D8402A0BD06A
:10536800002038BD602A27D0702AF9D10B698A68D5
:10537800C968FFF746FFF3E7052C30D0026A036AD5
:10538800096923F001030362836923F0F00343EA08
:10539800011383610262E3E78A680D69016A046A9E
:1053A80021F00A0124F00104046283690A4323F00E
:1053B800F00343EA0513ECE78C680D69016A21F0F4
:1053C800100101628269036A22F4704223F0A0038B
:1053D80042EA053243EA041382610362C0E701200E
:1053E80038BD38B590F83C300446012B4FF0020325
:1053F8001CD0012580F83D3080F83C50FFF79FFF16
:1054080030B1002384F83D5084F83C30284638BD3C
:105418002368DA6822F04002DA60DA6822F480420F
:10542800DA6084F83D5084F83C0038BD184638BD31
:1054380090F83C3030B5012B4FF0020314D00468CB
:1054480080F83D306268A3680D68496822F07002F0
:1054580023F080030B432A436260A360012380F892
:105468003D30002380F83C30184630BD7047704707
:1054780038B505460368C1681A69192422F44052F0
:105488000A431A6182680069D9680243686921F48D
:10549800B05121F00C0102430A43DA605A69A96944
:1054A80022F440720A435A610D4A934214D1FFF71D
:1054B800CBFC60436C686422A400B0FBF4F0B0FB42
:1054C800F2F402FB14031B013233B3FBF2F3296835
:1054D80003EB04138B6038BDFFF7A6FCE9E700BFB8
:1054E8000038014010B5044640B390F8393003F055
:1054F800FF021BB980F83820FEF764F924232268DC
:1055080084F83930D368204623F40053D360FFF77A
:10551800AFFF236800201A6922F490421A615A6981
:1055280022F02A025A61DA6842F40052DA60202333
:10553800E06384F8393084F83A3010BD012010BD9A
:10554800002103E00B4B5B58435004310A480B4BD6
:1055580042189A42F6D30A4A02E0002342F8043B72
:10556800084B9A42F9D3FEF747F801F053F9FDF7D3
:1055780035FF7047B86F0008000000207800002051
:1055880078000020B4030020FEE701F067B90B465D
:105598000146184601F02AB97FB51023002402936A
:1055A800036815469E6900946B468DF80440039481
:1055B8001268B0479DF8043003F00603062B09BFB4
:1055C80001202046009B2B6004B070BD00989042DB
:1055D8000CBF06200120704710B50446024B03603B
:1055E80000F04BF8204610BDD46B000810B50446F7
:1055F800FFF7F2FF2046082100F0DBF8204610BD37
:1056080038B515461C4600F03BF820B10823E36086
:1056180006232560237138BD2DE9F04105460C4667
:1056280016461F4600F02CF848B9032F07D8236800
:10563800324629462046BDE8F0415B691847BDE877
:10564800F0812DE9F041069E9846089B07469E4248
:105658001546099C03D1079900F012F858B941463C
:10566800384600F00DF818B1012326602571A371A2
:105678000020BDE8F0816571FAE7704700207047A7
:10568800814208B50ED0406803782A2B0CD04968AF
:105698000B782A2B08BF0131FAF7C2FDB0FA80F067
:1056A800400908BD012008BD002008BD10B504460A
:1056B800024B0360FFF790FF204610BD4C6C0008BA
:1056C80010B50446FFF7F2FF20460C2100F071F8F0
:1056D800204610BD2DE9F041069E804696420F46B1
:1056E80014461D4603D11946FFF7CAFF58B9D8F822
:1056F80008002246036806961E6A39462B46B446B9
:10570800BDE8F04160470620BDE8F0812DE9F14F82
:105718000E4619468346174699460A9CDDF82CA082
:10572800DDF830800D9DFFF7ABFF90B1002E2C60A7
:105738002F7109DB3444A0450CBF06240124AC7149
:10574800002001B0BDE8F08F0236F9D10123AB711A
:10575800F6E7444504D151465846FFF791FF88B90A
:10576800DBF808003A4603680D95CDF83080CDF88F
:105778002CA00A94DC6931464B46A44601B0BDE82A
:10578800F04F60476F71DBE72DE9F04104460D46A5
:1057980016461F46FFF734FF48B9A068324603682B
:1057A80029469C693B46A446BDE8F0416047BDE8F0
:1057B800F081FFF7EABE00002DE9F04F8FB01D46DB
:1057C80080468946144600F05BF9A54FCDE90001F3
:1057D80097F900303E46029301335FD022462B46AC
:1057E80020462946FBF778F98246002856D14246DA
:1057F8004B4640464946FBF76FF90390E8B1002253
:10580800002320462946FBF735F9002846D0012316
:1058180000220493934BCDF830A00593924BCDE929
:105828000689CDE90A23029BCDE90845022B31D030
:1058380004A800F0CCFE38BB58E04FF0000A4FF047
:10584800000B52465B4640464946FBF713F90028D1
:1058580051D052465B4620462946FBF70BF90646CF
:1058680008B3012304937F4BCDE906890593039B75
:10587800CDE908450C93029BCDE90AAB002BD7D0A4
:105888000022794BCDE90A230C9B1BB100F0BCFF29
:105898000C9B0360DDE90A348DE81800DDE900019E
:1058A8000FB0BDE8F08F2046294600F08AFE002898
:1058B800F4D052465B4620462946FBF7E5F8002817
:1058C800ECD001230493674B0C96059397F90030AD
:1058D800CDE90689CDE9084513B9CDE90AABA7E7B3
:1058E80000206249022BCDE90A01A1D100F08CFF0A
:1058F80021230360C8E7DDE9000100F062FE0290A1
:1059080000287FD14046494600F05BFE002879D048
:105918002046294600F055FE002873D0DDE9002313
:1059280019461046FBF7D8F897F900704D4BA0B10F
:1059380001220593029B04920C93CDE90689CDE9D7
:105948000845002FC9D052465B4650465946FAF7DB
:1059580053FF022FCDE90A01C7E7032205930492FA
:105968000C90CDE90689CDE9084557BB4FF0604258
:105978003F4B4046CDE90A23494652465B46FBF772
:1059880083F8002864D000223A4B20462946FAF7CB
:1059980009FE04460D4600F023FE02460B4620464B
:1059A8002946FBF767F820B94FF06042324BCDE942
:1059B8000A2396F90030022B4AD100F025FF222352
:1059C80097E700222D4B4046CDE90A234946524627
:1059D8005B46FBF759F80028EBD00022254B204600
:1059E8002946FAF7DFFD04460D4600F0F9FD0246A8
:1059F8000B4620462946FBF73DF80028D9D100225E
:105A08001A4BD4E70022DDE900010023FBF732F846
:105A180000283FF443AF4046494600F0D2FD002835
:105A28003FF43CAF2046294600F0CBFD00283FF468
:105A380035AF042304930B4BCDE9084505930023A8
:105A480000240C930023CDE90689CDE90A34B0E798
:105A580004A800F0BCFD00287FF416AFADE700BF36
:105A680010000020706C00080000F03F0000F0FFFC
:105A7800FFFFEF470000E03FFFFFEFC70000F07FA8
:105A88002DE9F04F93B0CDE90223039E029A26F048
:105A9800004555EA0203074688468246894600F0D3
:105AA8009E84774B21F000449C4209DC03D138B92D
:105AB800A5420DDC01E09D4202DC9D420ED16AB197
:105AC80004F1404404F5801454EA0A0300F0878482
